:100000000C944C000C9469000C9469000C946900E9
:100010000C9469000C9469000C9469000C946900BC
:100020000C9469000C9469000C9469000C946900AC
:100030000C9469000C9469000C9469000C9469009C
:100040000C9469000C9469000C9469000C9469008C
:100050000C9469000C9469000C9469000C9469007C
:100060000C9469000C9469000C9469000C9469006C
:100070000C9469000C9469000C9469000C9469005C
:100080000C9469000C9469000C9469000C9469004C
:100090000C9469000C94690011241FBECFEFD0E1CD
:1000A000DEBFCDBF11E0A0E0B1E0E8E8F3E102C0BF
:1000B00005900D92A232B107D9F721E0A2E2B1E09A
:1000C00001C01D92A932B207E1F70E94BC050C9451
:1000D000C2090C94000089E08093B8008091B900B7
:1000E0008C7F8093B9008FEF81B984EE8093BC0040
:1000F0008091BC0087FFFCCF8EED8093BB0084EC29
:100100008093BC008091B9008831E1F71092BB0068
:1001100084EC8093BC008091B9008832E1F78DEACD
:100120008093BB0084EC8093BC008091B90088323E
:10013000E1F789E58093BB0084EC8093BC0080915B
:10014000B9008832E1F781E18093BB0084EC8093B1
:10015000BC008091B9008832E1F784E98093BC004B
:100160008BE3809325018BE08093280185E88A95B5
:10017000F1F700000895E82F462F8A30D0F0282F9D
:1001800030E08DECE89F812D11248695869586952B
:100190009E2F5AE0859F90191124291B3109C9010E
:1001A0006AE070E00E94C906862F880F860F880FCC
:1001B000E80F4A30D0F0242F30E08DEC489F812D9D
:1001C0001124869586958695942F5AE0859F9019DF
:1001D0001124291B3109C9016AE070E00E94C90697
:1001E000862F880F860F880F480F84EE8093BC00FF
:1001F0009091BC0097FFFCCF8EED8093BB0084EC08
:100200008093BC009091B9009831E1F71092BB0047
:1002100084EC8093BC009091B9009832E1F780E8BB
:100220008093BB0084EC8093BC009091B90098321D
:10023000E1F7E093BB0084EC8093BC008091B900AF
:100240008832E1F74093BB0084EC8093BC0080913E
:10025000B9008832E1F784E98093BC0055E85A95EB
:10026000F1F70000089584EE8093BC008091BC00FB
:1002700087FFFCCF8EED8093BB0084EC8093BC00A5
:100280008091B9008831E1F71092BB0084EC809333
:10029000BC008091B9008832E1F784EE8093BC0005
:1002A0008091B9008031E1F78FED8093BB0084EC41
:1002B0008093BC008091B9008034E1F784EC809396
:1002C000BC008091B9008035E1F78091BB0080933C
:1002D000220184EC8093BC008091B9008035E1F765
:1002E0008091BB008093250184E88093BC008091BD
:1002F000B9008835E1F78091BB008093280184E93B
:100300008093BC00209122018091220186958695E0
:1003100086958E70982F990F990F980F2F70920FC6
:100320009093220120912501809125018695869543
:1003300086958E70982F990F990F980F2F70920FA6
:10034000909325012091280180912801869586951A
:1003500086958670982F990F990F980F2F70920F8E
:100360009093280108955F985E9890E498B9709AE8
:1003700000C000C070983AE13A95F1F700C08823B8
:1003800081F090E028E25F985E9828B9709A00C0EA
:1003900000C070983AE13A95F1F700C09F5F98135A
:1003A000F2CF08958AB1806C8AB9689A8FEF87B9C5
:1003B0005F985E988CE188B9709A00C000C0709810
:1003C0008AE18A95F1F700C0709A00C000C0709869
:1003D0009AE19A95F1F700C080EF88B9709A00C051
:1003E00000C070988AE18A95F1F700C080E888B96A
:1003F00000C000C0709A00C000C070989AE19A9541
:10040000F1F700C087EE93E00197F1F700C000001C
:1004100080E688B9709A00C000C070989AE19A95F9
:10042000F1F700C087EE93E00197F1F700C00000FC
:100430005F985E9880E388B9709A00C000C0709899
:100440009AE19A95F1F700C0089561111BC05F9879
:100450005E988295982F9373990F990F8C7C86954F
:100460008695892B982F9575990F8A7A8695892B71
:1004700088B9709A00C000C070988AE18A95F1F737
:1004800000C008955F9AE4CFFC012081222319F176
:1004900040E020815F9A5E982295322F3373330FAC
:1004A000330F2C7C26952695232B322F3575330F51
:1004B0002A7A2695232B28B9709A00C000C070981C
:1004C000FAE1FA95F1F700C04F5FFC01E40FF11D6E
:1004D00020812111DECF0895FF920F931F93CF93B8
:1004E000DF9300D01F92CDB7DEB78FEF82B960E007
:1004F00082E00E9425028EE091E00E944402109169
:100500002701F090260190912401809125019817F0
:1005100021F185E00E94B3011A3008F089C080E320
:100520008983105D1A838E010F5F1F4F1B82C801E4
:100530000E94440288E00E94B30129E02F1508F4CC
:100540008BC080E389838F0D8A831B82C8010E9440
:100550004402809125018093240187E00E94B30129
:1005600087E191E00E9444028AE00E94B3018DE09D
:1005700091E00E94440288E20E94B30183E091E08E
:100580000E94440280E090E021E040E43FEF7E9B47
:1005900013C02223B9F18F3FEFEF9E0709F440C04B
:1005A000019643B930B9E7EAF1E63197F1F700C0B7
:1005B000000021E07E99EDCF12B8109223018FEB5D
:1005C00085B960E081E00E9425028FB1887F883F75
:1005D00051F083EC99E00197F1F700C000008FB172
:1005E000887F883FB1F712B88091250181508093B0
:1005F00024010F900F900F90DF91CF911F910F91D9
:10060000FF9008958F3FFFEF9F0771F0019643B968
:1006100030B9E9EFF0E03197F1F700C00000B7CF53
:1006200080E090E020E0B3CF80E090E021E0AFCF29
:100630001F921F9380E091E09F938F938E010F5F35
:100640001F4F1F930F930E94F1060F900F900F9072
:100650000F900F900F906ACF1F92FF9280E091E071
:100660009F938F931F930F930E94F1060F900F900B
:100670000F900F900F900F9068CF7F928F929F9264
:10068000AF92BF92CF92DF92EF92FF920F931F93A0
:10069000CF93DF9300D01F92CDB7DEB760E081E04B
:1006A0000E94250283EC99E00197F1F700C0000059
:1006B000DD24D3948E010F5F1F4F80E0E82E81E090
:1006C000F82E90E3992E2BE3722E37E1832E0E94B1
:1006D0003301B0902701C0902601A09022018DE245
:1006E0000E94B301DD2009F4A1C0A0FC84C08EE10A
:1006F00091E00E94440287E191E00E94440289E077
:100700008C1508F484C0998280E38C0D8A831B8247
:10071000C8010E9444027D9902C0DD24D3947B99D4
:100720002EC07E9930C060E081E00E94250281E009
:10073000809323018FB1887F883F51F083EC99E04B
:100740000197F1F700C000008FB1887F883FB1F7B3
:1007500012B8809125018150809324010F900F9051
:100760000F90DF91CF911F910F91FF90EF90DF904D
:10077000CF90BF90AF909F908F907F9008957E9B79
:10078000D2CFD11022C07C9906C080912601811160
:100790007DC0709226017F990AC0809126018B331B
:1007A00009F489C0809126018F5F80932601D12CA6
:1007B00006C083EC99E00197F1F700C000008FB10B
:1007C000887F883FB1F712B882CF7C9906C08091AC
:1007D0002701811155C0809227017F993FC08091E8
:1007E00027018731C9F1809127018F5F809327010D
:1007F000DD24D394E4CF99E09B1598F1998280E3AE
:100800008B0D8A831B82C8010E94440274CF1F9201
:10081000CF92FF92EF921F930F930E94F1060F90D9
:100820000F900F900F900F900F9071CF99E09B1544
:1008300098F1998280E38B0D8A831B82C8010E9404
:10084000440287E191E00E944402A0FC58CF8EE16F
:1008500091E00E9444025FCF10922701DD24D394DF
:10086000AECF1F92BF92FF92EF921F930F930E9401
:10087000F1060F900F900F900F900F900F90C2CF36
:1008800080912701815080932701A7CF8091260175
:100890008150809326017FCF1F92BF92FF92EF92EB
:1008A0001F930F930E94F1060F900F900F900F90DF
:1008B0000F900F90C2CF10922601D12C80CF9F9223
:1008C000AF92BF92CF92DF92EF92FF920F931F935E
:1008D000CF93DF9300D01F92CDB7DEB760E081E009
:1008E0000E94250283EC99E00197F1F700C0000017
:1008F000C0902501B0902801DD24D3948E010F5FB4
:100900001F4F60E0E62E61E0F62E70E3972E0E9406
:100910003301A090220185E00E94B301DD2009F49B
:100920009FC0A0FC82C08EE191E00E94440287E15A
:1009300091E00E94440289E08C1508F482C09982FB
:1009400080E38C0D8A831B82C8010E9444027D993A
:1009500002C0DD24D3947B992DC07E992FC060E026
:1009600081E00E9425026B2D8C2D0E94BB008FB16F
:10097000887F883F51F083EC99E00197F1F700C040
:1009800000008FB1887F883FB1F712B880912501B0
:100990008150809324010F900F900F90DF91CF91A1
:1009A0001F910F91FF90EF90DF90CF90BF90AF908D
:1009B0009F9008957E9BD3CFD1100DC07C9915C018
:1009C000C11012C07F9987C0D12C9FB1987F983FEA
:1009D000A9F412B89CCF7C991EC0B1101BC07F999E
:1009E0007EC0DD24D39410C0CA947F99EDCF9BE3E1
:1009F000C91609F469C0C394D12C06C083EC99E0F0
:100A00000197F1F700C000009FB1987F983FB1F7C0
:100A100012B87DCFBA947F99E4CF87E1B81609F474
:100A200056C0B394DD24D394EFCF99E09B1570F1B9
:100A3000998280E38B0D8A831B82C8010E94440245
:100A400076CF1F92CF92FF92EF921F930F930E9447
:100A5000F1060F900F900F900F900F900F9073CFA3
:100A600099E09B1510F1998280E38B0D8A831B829C
:100A7000C8010E94440287E191E00E944402A0FC68
:100A80005ACF8EE191E00E94440261CF1F92BF9243
:100A9000FF92EF921F930F930E94F1060F900F9019
:100AA0000F900F900F900F90C7CF1F92BF92FF92A1
:100AB000EF921F930F930E94F1060F900F900F90EB
:100AC0000F900F900F90D3CFD12CC12C9DCFDD2450
:100AD000D394B12C99CFD12C5BE3C52E95CFDD24D7
:100AE000D39447E1B42E90CF7E9B3DC07B9B0CC03E
:100AF0007D9911C08FB1887F883F51F083EC99E0D8
:100B00000197F1F700C000008FB1887F883FB1F7EF
:100B100012B80E943D037F9B07C00EC083EC99E092
:100B20000197F1F700C000008FB1887F883FB1F7CF
:100B300012B881E0809323017C9B07C01CC083EC2A
:100B400099E00197F1F700C000008FB1887F883FDE
:100B5000B1F712B810922301089583EC99E0019740
:100B6000F1F700C000008FB1887F883FB1F712B85D
:100B70000E945F04BBCF0895CF93DF9300D01F92F4
:100B8000CDB7DEB70E946B0085B7806885BF85B79B
:100B9000806885BF10BA88EF81BB0E94D20180E4D3
:100BA00084B910922301109226018CE080932701D2
:100BB000809125018150809324018E010F5F1F4F8A
:100BC000E0E0EE2EE1E0FE2EF0E3AF2E51C08FE12B
:100BD00091E00E9444028BE00E94B3018FE191E01A
:100BE0000E94440281E30E94B30189E191E00E94E6
:100BF0004402C0902801D0902501B090220190912C
:100C0000240180912501981711F185E00E94B3011C
:100C100089E08C1508F490C0A98280E38C0D8A834A
:100C20001B82C8010E94440288E00E94B30199E03F
:100C30009D1508F472C0A98280E38D0D8A831B8202
:100C4000C8010E944402809125018093240187E01D
:100C50000E94B301B0FE4EC08FE191E00E944402B9
:100C60000E94740587EA91E60197F1F700C0000041
:100C700060E082E00E9425020E94330190912601EB
:100C8000809125019817D9F183E00E94B3018091EA
:100C90002301882309F49BCF84E191E00E94440260
:100CA0008BE00E94B30184E191E00E94440281E361
:100CB0000E94B30186E191E00E94440280912701E5
:100CC0008A3008F057C0A982805D8A831B82C801E0
:100CD0000E94440287E191E00E9444028091260133
:100CE0008A30C8F5A982805D8A831B82C8010E9470
:100CF00044027FCF87E191E00E944402B1CF9091FE
:100D00002701809128019813BFCF80912301882368
:100D100009F4BACF0E946C02B7CF1F92DF92FF9204
:100D2000EF921F930F930E94F1060F900F900F9078
:100D30000F900F900F9083CF1F92CF92FF92EF9260
:100D40001F930F930E94F1060F900F900F900F903A
:100D50000F900F9065CF1F928F93FF92EF921F938A
:100D60000F930E94F1060F900F900F900F900F902D
:100D70000F90BBCF1F928F93FF92EF921F930F9311
:100D80000E94F1060F900F900F900F900F900F9010
:100D90009DCF97FB072E16F4009407D077FD09D05E
:100DA0000E94DD0607FC05D03EF4909581959F4F8B
:100DB0000895709561957F4F0895AA1BBB1B51E163
:100DC00007C0AA1FBB1FA617B70710F0A61BB70BBB
:100DD000881F991F5A95A9F780959095BC01CD0160
:100DE0000895AEE0B0E0E7EFF6E00C9499090D89C4
:100DF0001E8986E08C831A8309838FEF9FE79E8389
:100E00008D83AE01475E5F4F6F89788DCE0101966D
:100E10000E941307EF81F885E00FF11F10822E96D4
:100E2000E4E00C94B509ACE0B0E0E9E1F7E00C9443
:100E30008B097C016B018A01FC0117821682838178
:100E400081FFBDC1CE0101964C01F7019381F601EE
:100E500093FD859193FF81916F01882309F4ABC1C4
:100E6000853239F493FD859193FF81916F0185322D
:100E700029F4B70190E00E94FB08E7CF512C312CF8
:100E800020E02032A0F48B3269F030F4803259F047
:100E9000833269F420612CC08D3239F0803339F40B
:100EA000216026C02260246023C0286021C027FD65
:100EB00027C030ED380F3A3078F426FF06C0FAE04C
:100EC0005F9E300D1124532E13C08AE0389E300DE2
:100ED0001124332E20620CC08E3221F426FD6BC10A
:100EE000206406C08C3611F4206802C0883641F4B4
:100EF000F60193FD859193FF81916F018111C1CF1F
:100F0000982F9F7D9554933028F40C5F1F4FFFE37B
:100F1000F9830DC0833631F0833771F0833509F0E2
:100F20005BC022C0F801808189830E5F1F4F44247B
:100F30004394512C540115C03801F2E06F0E711C1E
:100F4000F801A080B18026FF03C0652D70E002C0CB
:100F50006FEF7FEFC5012C870E94F0082C01830101
:100F60002C852F77222E17C03801F2E06F0E711CEE
:100F7000F801A080B18026FF03C0652D70E002C09B
:100F80006FEF7FEFC5012C870E94E5082C012C85AF
:100F90002068222E830123FC1BC0832D90E048167D
:100FA0005906B0F4B70180E290E00E94FB083A9441
:100FB000F4CFF50127FC859127FE81915F01B701F0
:100FC00090E00E94FB0831103A94F1E04F1A51086A
:100FD0004114510471F7E5C0843611F0893639F5B2
:100FE000F80127FF07C060817181828193810C5FC6
:100FF0001F4F08C060817181882777FD8095982FE9
:101000000E5F1F4F2F76B22E97FF09C090958095E7
:10101000709561957F4F8F4F9F4F2068B22E2AE0C9
:1010200030E0A4010E942D09A82EA81844C08537DD
:1010300029F42F7EB22E2AE030E025C0F22FF97F6E
:10104000BF2E8F36C1F018F4883579F0B4C08037E0
:1010500019F0883721F0AFC02F2F2061B22EB4FED7
:101060000DC08B2D8460B82E09C024FF0AC09F2FAD
:101070009660B92E06C028E030E005C020E130E0DF
:1010800002C020E132E0F801B7FE07C06081718143
:10109000828193810C5F1F4F06C06081718180E067
:1010A00090E00E5F1F4FA4010E942D09A82EA818E2
:1010B000FB2DFF77BF2EB6FE0BC02B2D2E7FA51468
:1010C00050F4B4FE0AC0B2FC08C02B2D2E7E05C021
:1010D0007A2C2B2D03C07A2C01C0752C24FF0DC057
:1010E000FE01EA0DF11D8081803311F4297E09C0D3
:1010F00022FF06C07394739404C0822F867809F08F
:10110000739423FD13C020FF06C05A2C731418F4E7
:10111000530C5718732C731468F4B70180E290E0F5
:101120002C870E94FB0873942C85F5CF731410F460
:10113000371801C0312C24FF12C0B70180E390E0C2
:101140002C870E94FB082C8522FF17C021FF03C0BB
:1011500088E590E002C088E790E0B7010CC0822FDC
:10116000867859F021FD02C080E201C08BE227FDA4
:101170008DE2B70190E00E94FB08A51438F4B70196
:1011800080E390E00E94FB085A94F7CFAA94F40100
:10119000EA0DF11D8081B70190E00E94FB08A110CB
:1011A000F5CF332009F451CEB70180E290E00E94E0
:1011B000FB083A94F6CFF7018681978102C08FEF42
:1011C0009FEF2C96E2E10C94A709FC010590615079
:1011D00070400110D8F7809590958E0F9F1F08954D
:1011E000FC016150704001900110D8F780959095F6
:1011F0008E0F9F1F08950F931F93CF93DF93182F88
:10120000092FEB018B8181FD03C08FEF9FEF20C081
:1012100082FF10C04E815F812C813D8142175307B0
:101220007CF4E881F9819F012F5F3F4F3983288348
:10123000108306C0E885F985812F0995892B29F748
:101240002E813F812F5F3F4F3F832E83812F902F31
:10125000DF91CF911F910F910895FA01AA272830AD
:1012600051F1203181F1E8946F936E7F6E5F7F4F73
:101270008F4F9F4FAF4FB1E03ED0B4E03CD0670FEF
:10128000781F891F9A1FA11D680F791F8A1F911D42
:10129000A11D6A0F711D811D911DA11D20D009F492
:1012A00068943F912AE0269F11243019305D3193D4
:1012B000DEF6CF010895462F4770405D4193B3E0BD
:1012C0000FD0C9F7F6CF462F4F70405D4A3318F064
:1012D000495D31FD4052419302D0A9F7EACFB4E015
:1012E000A6959795879577956795BA95C9F70097CD
:1012F0006105710508959B01AC010A2E069457956E
:10130000479537952795BA95C9F7620F731F841FC4
:10131000951FA01D08952F923F924F925F926F925A
:101320007F928F929F92AF92BF92CF92DF92EF9275
:10133000FF920F931F93CF93DF93CDB7DEB7CA1BF6
:10134000DB0B0FB6F894DEBF0FBECDBF09942A8821
:10135000398848885F846E847D848C849B84AA84C9
:10136000B984C884DF80EE80FD800C811B81AA8156
:10137000B981CE0FD11D0FB6F894DEBF0FBECDBF21
:08138000ED010895F894FFCF80
:10138800256400212121212121212121212121211F
:10139800212121002A00413A00202020202020205D
:0213A800000043
:00000001FF
