:100000000C944C000C9469000C9469000C946900E9
:100010000C9469000C9469000C9469000C946900BC
:100020000C9469000C9469000C9469000C946900AC
:100030000C9469000C9469000C9469000C9469009C
:100040000C9469000C9469000C9469000C9469008C
:100050000C9469000C9469000C9469000C9469007C
:100060000C9469000C9469000C9469000C9469006C
:100070000C9469000C9469000C9469000C9469005C
:100080000C9469000C9469000C9469000C9469004C
:100090000C9469000C94690011241FBECFEFD0E1CD
:1000A000DEBFCDBF11E0A0E0B1E0E6E4FDE002C0BC
:1000B00005900D92A430B107D9F721E0A4E0B1E09A
:1000C00001C01D92A730B207E1F70E9445030C94CE
:1000D000A1060C94000089E08093B8008091B900DB
:1000E0008C7F8093B9008FEF81B984EE8093BC0040
:1000F0008091BC0087FFFCCF8EED8093BB0084EC29
:100100008093BC008091B9008831E1F71092BB0068
:1001100084EC8093BC008091B9008832E1F780E8DC
:100120008093BB0084EC8093BC008091B90088323E
:10013000E1F789E58093BB0084EC8093BC0080915B
:10014000B9008832E1F781E18093BB0084EC8093B1
:10015000BC008091B9008832E1F784E98093BC004B
:1001600085E88A95F1F70000089594EE9093BC001D
:100170009091BC0097FFFCCF9EED9093BB0094EC58
:100180009093BC009091B9009831E1F71092BB00B8
:1001900094EC9093BC009091B9009832E1F790E80C
:1001A0009093BB0094EC9093BC009091B90098326E
:1001B000E1F78093BB0084EC8093BC008091B90090
:1001C0008832E1F76093BB0084EC8093BC0080919F
:1001D000B9008832E1F784E98093BC0085E88A950C
:1001E000F1F70000089584EE8093BC008091BC007C
:1001F00087FFFCCF8EED8093BB0084EC8093BC0026
:100200008091B9008831E1F71092BB0084EC8093B3
:10021000BC008091B9008832E1F784EE8093BC0085
:100220008091B9008031E1F78FED8093BB0084ECC1
:100230008093BC008091B9008034E1F784EC809316
:10024000BC008091B9008035E1F78091BB008093BC
:10025000040184EC8093BC008091B9008035E1F703
:100260008091BB008093050184E88093BC0080915D
:10027000B9008835E1F78091BB008093060184E9DD
:100280008093BC002091040180910401869586959D
:1002900086958E70982F990F990F980F2F70920F47
:1002A0009093040120910501809105018695869522
:1002B00086958E70982F990F990F980F2F70920F27
:1002C00090930501209106018091060186958695FF
:1002D00086958670982F990F990F980F2F70920F0F
:1002E0009093060108955F985E9890E498B9709A8B
:1002F00000C000C070983AE13A95F1F700C0882339
:1003000081F090E028E25F985E9828B9709A00C06A
:1003100000C070983AE13A95F1F700C09F5F9813DA
:10032000F2CF08958AB1806C8AB9689A8FEF87B945
:100330005F985E988CE188B9709A00C000C0709890
:100340008AE18A95F1F700C0709A00C000C07098E9
:100350009AE19A95F1F700C080EF88B9709A00C0D1
:1003600000C070988AE18A95F1F700C080E888B9EA
:1003700000C000C0709A00C000C070989AE19A95C1
:10038000F1F700C087EE93E00197F1F700C000009D
:1003900080E688B9709A00C000C070989AE19A957A
:1003A000F1F700C087EE93E00197F1F700C000007D
:1003B000089561111BC05F985E988295982F937382
:1003C000990F990F8C7C86958695892B982F95751A
:1003D000990F8A7A8695892B88B9709A00C000C0D7
:1003E00070988AE18A95F1F700C008955F9AE4CF8A
:1003F000FC012081222319F140E020815F9A5E9860
:100400002295322F3373330F330F2C7C269526958C
:10041000232B322F3575330F2A7A2695232B28B9B3
:10042000709A00C000C07098FAE1FA95F1F700C028
:100430004F5FFC01E40FF11D20812111DECF0895F3
:100440009F92AF92BF92CF92DF92EF92FF920F9363
:100450001F93CF93DF9300D01F92CDB7DEB760E03C
:1004600081E00E94D90183EC99E00197F1F700C087
:1004700000008091050180910601AA24A3948E01B9
:100480000F5F1F4F20E0E22E21E0F22E30E3B32E6B
:100490004AE3942EC0900501D0900601D2B885E0C1
:1004A0000E94730199E09D1508F4C1C0B98280E3F0
:1004B0008D0D8A831B82C8010E94F80199821A82DD
:1004C000C8010E94F80189E08C1508F492C0B98235
:1004D00080E38C0D8A831B82C8010E94F8017D99FC
:1004E00002C0AA24A3947B9922C07E9924C060E014
:1004F00081E00E94D9016D2D8C2D0E94B5008FB135
:100500008C3F29F08FB182B98FB18C3FD9F712B8E7
:100510000F900F900F90DF91CF911F910F91FF904F
:10052000EF90DF90CF90BF90AF909F9008957E9B0B
:10053000DECFA11037C07C993FC0C1103CC07F996D
:100540009BC0A12C8FB18C3F09F042C012B86D2D19
:100550008C2D0E94B5000E94F300C0900601D0903F
:10056000050185E00E94730199E09C1508F46EC0B6
:10057000B98280E38C0D8A831B82C8010E94F80136
:1005800099821A82C8010E94F80189E08D1508F449
:100590003FC0B98280E38D0D8A831B82C8010E940F
:1005A000F80178CF7C991BC0D11018C07F9968C022
:1005B000AA24A39409C0CA947F99C3CF9BE3C91608
:1005C00009F453C0C394A12C8FB18C3F09F4BECF62
:1005D0009FB192B99FB19C3FD9F7B8CFDA947F9978
:1005E000E7CF87E1D81609F443C0D394AA24A39493
:1005F000EBCF1F92CF92FF92EF921F930F930E9427
:10060000D0030F900F900F900F900F900F9063CF2B
:100610001F92DF92FF92EF921F930F930E94D003DD
:100620000F900F900F900F900F900F90B6CF1F92DA
:10063000DF92FF92EF921F930F930E94D0030F90CF
:100640000F900F900F900F900F9034CF1F92CF927A
:10065000FF92EF921F930F930E94D0030F900F9081
:100660000F900F900F900F9087CFA12CC12CACCF83
:10067000AA24A394D12CA8CFA12C9BE3C92EA4CF4C
:10068000AA24A39487E1D82E9FCFCF93DF9300D0E5
:100690001F92CDB7DEB70E946B0085B7806885BF1B
:1006A00085B7806885BF10BA88EF81BB0E94920130
:1006B00060E08CE00E94D9018E010F5F1F4F50E077
:1006C000E52E51E0F52E60E3A62E70E2872EEAE3D8
:1006D0009E2E60E082E00E94D9010E94F300D0903B
:1006E0000601C0900501B090040185E00E947301ED
:1006F00089E08D1508F445C0A98280E38D0D8A83B9
:100700001B82C8010E94F801B0FC24C099821A82A1
:10071000C8010E94F80199E09C1520F1A98280E3AC
:100720008C0D8A831B82C8010E94F8017E9B03C046
:1007300008C08FB182B98FB18C3FD9F712B80E942F
:1007400020028FB182B987EA91E60197F1F700C0E4
:100750000000BFCF89821A82C8010E94F80199E087
:100760009C15E0F61F92CF92FF92EF921F930F938A
:100770000E94D0030F900F900F900F900F900F904A
:10078000D1CF1F92DF92FF92EF921F930F930E949F
:10079000D0030F900F900F900F900F900F90B0CF4D
:1007A000AEE0B0E0E6EDF3E00C9478060D891E892A
:1007B00086E08C831A8309838FEF9FE79E838D8366
:1007C000AE01475E5F4F6F89788DCE0101960E9422
:1007D000F203EF81F885E00FF11F10822E96E4E01E
:1007E0000C949406ACE0B0E0E8EFF3E00C946A06F9
:1007F0007C016B018A01FC0117821682838181FFD3
:10080000BDC1CE0101964C01F7019381F60193FD24
:10081000859193FF81916F01882309F4ABC18532E3
:1008200039F493FD859193FF81916F01853229F40D
:10083000B70190E00E94DA05E7CF512C312C20E07F
:100840002032A0F48B3269F030F4803259F08332D8
:1008500069F420612CC08D3239F0803339F4216085
:1008600026C02260246023C0286021C027FD27C045
:1008700030ED380F3A3078F426FF06C0FAE05F9E7C
:10088000300D1124532E13C08AE0389E300D1124F0
:10089000332E20620CC08E3221F426FD6BC1206401
:1008A00006C08C3611F4206802C0883641F4F60187
:1008B00093FD859193FF81916F018111C1CF982F95
:1008C0009F7D9554933028F40C5F1F4FFFE3F9830D
:1008D0000DC0833631F0833771F0833509F05BC08A
:1008E00022C0F801808189830E5F1F4F4424439406
:1008F000512C540115C03801F2E06F0E711CF80143
:10090000A080B18026FF03C0652D70E002C06FEFAC
:100910007FEFC5012C870E94CF052C0183012C8518
:100920002F77222E17C03801F2E06F0E711CF801EC
:10093000A080B18026FF03C0652D70E002C06FEF7C
:100940007FEFC5012C870E94C4052C012C852068EF
:10095000222E830123FC1BC0832D90E048165906EC
:10096000B0F4B70180E290E00E94DA053A94F4CF47
:10097000F50127FC859127FE81915F01B70190E089
:100980000E94DA0531103A94F1E04F1A51084114EF
:10099000510471F7E5C0843611F0893639F5F80154
:1009A00027FF07C060817181828193810C5F1F4F97
:1009B00008C060817181882777FD8095982F0E5F30
:1009C0001F4F2F76B22E97FF09C090958095709596
:1009D00061957F4F8F4F9F4F2068B22E2AE030E005
:1009E000A4010E940C06A82EA81844C0853729F43B
:1009F0002F7EB22E2AE030E025C0F22FF97FBF2EE5
:100A00008F36C1F018F4883579F0B4C0803719F00A
:100A1000883721F0AFC02F2F2061B22EB4FE0DC059
:100A20008B2D8460B82E09C024FF0AC09F2F9660CA
:100A3000B92E06C028E030E005C020E130E002C059
:100A400020E132E0F801B7FE07C060817181828148
:100A500093810C5F1F4F06C06081718180E090E040
:100A60000E5F1F4FA4010E940C06A82EA818FB2D94
:100A7000FF77BF2EB6FE0BC02B2D2E7FA51450F492
:100A8000B4FE0AC0B2FC08C02B2D2E7E05C07A2C05
:100A90002B2D03C07A2C01C0752C24FF0DC0FE0144
:100AA000EA0DF11D8081803311F4297E09C022FFF7
:100AB00006C07394739404C0822F867809F07394EF
:100AC00023FD13C020FF06C05A2C731418F4530CD6
:100AD0005718732C731468F4B70180E290E02C87E8
:100AE0000E94DA0573942C85F5CF731410F437182F
:100AF00001C0312C24FF12C0B70180E390E02C87A5
:100B00000E94DA052C8522FF17C021FF03C088E56B
:100B100090E002C088E790E0B7010CC0822F867891
:100B200059F021FD02C080E201C08BE227FD8DE279
:100B3000B70190E00E94DA05A51438F4B70180E30C
:100B400090E00E94DA055A94F7CFAA94F401EA0DD6
:100B5000F11D8081B70190E00E94DA05A110F5CF68
:100B6000332009F451CEB70180E290E00E94DA050B
:100B70003A94F6CFF7018681978102C08FEF9FEFFD
:100B80002C96E2E10C948606FC01059061507040C1
:100B90000110D8F7809590958E0F9F1F0895FC0146
:100BA0006150704001900110D8F7809590958E0F9C
:100BB0009F1F08950F931F93CF93DF93182F092F33
:100BC000EB018B8181FD03C08FEF9FEF20C082FF7F
:100BD00010C04E815F812C813D81421753077CF408
:100BE000E881F9819F012F5F3F4F3983288310836C
:100BF00006C0E885F985812F0995892B29F72E8173
:100C00003F812F5F3F4F3F832E83812F902FDF91B6
:100C1000CF911F910F910895FA01AA27283051F121
:100C2000203181F1E8946F936E7F6E5F7F4F8F4F1D
:100C30009F4FAF4FB1E03ED0B4E03CD0670F781F7C
:100C4000891F9A1FA11D680F791F8A1F911DA11D61
:100C50006A0F711D811D911DA11D20D009F468949A
:100C60003F912AE0269F11243019305D3193DEF642
:100C7000CF010895462F4770405D4193B3E00FD0F8
:100C8000C9F7F6CF462F4F70405D4A3318F0495DE3
:100C900031FD4052419302D0A9F7EACFB4E0A695C6
:100CA0009795879577956795BA95C9F700976105E8
:100CB000710508959B01AC010A2E0694579547953E
:100CC00037952795BA95C9F7620F731F841F951F33
:100CD000A01D08952F923F924F925F926F927F9244
:100CE0008F929F92AF92BF92CF92DF92EF92FF923C
:100CF0000F931F93CF93DF93CDB7DEB7CA1BDB0BE8
:100D00000FB6F894DEBF0FBECDBF09942A8839888C
:100D100048885F846E847D848C849B84AA84B98493
:100D2000C884DF80EE80FD800C811B81AA81B9819F
:100D3000CE0FD11D0FB6F894DEBF0FBECDBFED01B3
:060D40000895F894FFCFB6
:040D46002564000020
:00000001FF
