S011000057616B65436C6F636B2E737265639F
S11300000C944C000C9469000C9469000C946900E5
S11300100C9469000C9469000C9469000C946900B8
S11300200C9469000C9469000C9469000C946900A8
S11300300C9469000C9469000C9469000C94690098
S11300400C9469000C9469000C9469000C94690088
S11300500C9469000C9469000C9469000C94690078
S11300600C9469000C9469000C9469000C94690068
S11300700C9469000C9469000C9469000C94690058
S11300800C9469000C9469000C9469000C94690048
S11300900C9469000C94690011241FBECFEFD0E1C9
S11300A0DEBFCDBF11E0A0E0B1E0EEEEF2E102C0B0
S11300B005900D92AC32B107D9F721E0ACE2B1E082
S11300C001C01D92A233B207E1F70E9487050C9488
S11300D075090C94000089E08093B8008091B90000
S11300E08C7F8093B9008FEF81B984EE8093BC003C
S11300F08091BC0087FFFCCF8EED8093BB0084EC25
S11301008093BC008091B9008831E1F71092BB0064
S113011084EC8093BC008091B9008832E1F78DEAC9
S11301208093BB0084EC8093BC008091B90088323A
S1130130E1F789E58093BB0084EC8093BC00809157
S1130140B9008832E1F781E18093BB0084EC8093AD
S1130150BC008091B9008832E1F784E98093BC0047
S113016085E88A95F1F700000895E82F462F8A3034
S1130170D0F0282F30E08DECE89F812D1124869556
S1130180869586959E2F5AE0859F90191124291BE8
S11301903109C9016AE070E00E947C06862F880F4D
S11301A0860F880FE80F4A30D0F0242F30E08DEC12
S11301B0489F812D1124869586958695942F5AE023
S11301C0859F90191124291B3109C9016AE070E047
S11301D00E947C06862F880F860F880F480F84EEB6
S11301E08093BC009091BC0097FFFCCF8EED809370
S11301F0BB0084EC8093BC009091B9009831E1F786
S11302001092BB0084EC8093BC009091B9009832AA
S1130210E1F780E88093BB0084EC8093BC0090916C
S1130220B9009832E1F7E093BB0084EC8093BC0002
S11302308091B9008832E1F74093BB0084EC80934D
S1130240BC008091B9008832E1F784E98093BC0056
S113025055E85A95F1F70000089584EE8093BC00A8
S11302608091BC0087FFFCCF8EED8093BB0084ECB3
S11302708093BC008091B9008831E1F71092BB00F3
S113028084EC8093BC008091B9008832E1F784EE5D
S11302908093BC008091B9008031E1F78FED8093A9
S11302A0BB0084EC8093BC008091B9008034E1F7FA
S11302B084EC8093BC008091B9008035E1F7809193
S11302C0BB0080932C0184EC8093BC008091B90026
S11302D08035E1F78091BB0080932D0184E8809301
S11302E0BC008091B9008835E1F78091BB00809310
S11302F02E0184E98093BC0020912C0180912C0173
S11303008695869586958E70982F990F990F980FDC
S11303102F70920F90932C0120912D0180912D012B
S11303208695869586958E70982F990F990F980FBC
S11303302F70920F90932D0120912E0180912E0108
S11303408695869586958670982F990F990F980FA4
S11303502F70920F90932E0108955F985E9890E409
S113036098B9709A00C000C070983AE13A95F1F7D4
S113037000C0882381F090E028E25F985E9828B955
S1130380709A00C000C070983AE13A95F1F700C045
S11303909F5F9813F2CF08958AB1806C8AB9689AE6
S11303A08FEF87B95F985E988CE188B9709A00C026
S11303B000C070988AE18A95F1F700C0709A00C075
S11303C000C070989AE19A95F1F700C080EF88B95F
S11303D0709A00C000C070988AE18A95F1F700C055
S11303E080E888B900C000C0709A00C000C070984E
S11303F09AE19A95F1F700C087EE93E00197F1F73F
S113040000C0000080E688B9709A00C000C07098EF
S11304109AE19A95F1F700C087EE93E00197F1F71E
S113042000C000005F985E9880E388B9709A00C0AD
S113043000C070989AE19A95F1F700C0089561118F
S11304401BC05F985E988295982F9373990F990FAC
S11304508C7C86958695892B982F9575990F8A7A29
S11304608695892B88B9709A00C000C070988AE17B
S11304708A95F1F700C008955F9AE4CFFC012081CA
S1130480222319F140E020815F9A5E982295322F51
S11304903373330F330F2C7C26952695232B322F61
S11304A03575330F2A7A2695232B28B9709A00C004
S11304B000C07098FAE1FA95F1F700C04F5FFC01B3
S11304C0E40FF11D20812111DECF0895FF920F93D7
S11304D01F93CF93DF9300D01F92CDB7DEB78FEF7A
S11304E082B960E082E00E941F028EE091E00E94E7
S11304F03E0210913101F090300185E00E94AD017F
S11305001A3008F074C080E38983105D1A838E0169
S11305100F5F1F4F1B82C8010E943E028FE191E0D2
S11305200E943E0229E02F1508F475C080E38983F8
S11305308F0D8A831B82C8010E943E028AE00E94BA
S1130540AD018DE091E00E943E0288E20E94AD017F
S113055083E091E00E943E0280E090E021E030E4FC
S11305607E9B11C0222371F18F3FEFEF9E07B9F1FB
S1130570019633B9E7EAF1E63197F1F700C00000DC
S113058021E07E99EFCF12B810922F018FEB85B93D
S113059060E081E00E941F028FB18E3F49F083EC3E
S11305A099E00197F1F700C000008FB18E3FB9F7D1
S11305B012B80F900F900F90DF91CF911F910F9170
S11305C0FF9008958F3FFFEF9F0769F0019633B9BD
S11305D0E9EFF0E03197F1F700C00000C1CF80E00F
S11305E090E020E0BDCF80E090E021E0B9CF1F9201
S11305F01F9380E091E09F938F938E010F5F1F4FB5
S11306001F930F930E94A4060F900F900F900F90CA
S11306100F900F907FCF1F92FF9280E091E09F9305
S11306208F931F930F930E94A4060F900F900F9027
S11306300F900F900F907ECF7F928F929F92AF92E8
S1130640BF92CF92DF92EF92FF920F931F93CF93BB
S1130650DF9300D01F92CDB7DEB760E081E00E9447
S11306601F0283EC99E00197F1F700C00000DD243C
S1130670D3948E010F5F1F4F80E0E82E81E0F82EA7
S113068090E3992E2BE3722E37E1832E0E942D01E5
S1130690B0903101C0903001A0902C018DE20E94F5
S11306A0AD01DD2009F499C0A0FC7CC088E291E092
S11306B00E943E028FE191E00E943E0289E08C1587
S11306C008F47CC0998280E38C0D8A831B82C80164
S11306D00E943E027D9902C0DD24D3947B9927C0F9
S11306E07E9929C060E081E00E941F0281E080932E
S11306F02F018FB18E3F49F083EC99E00197F1F718
S113070000C000008FB18E3FB9F712B80F900F9060
S11307100F90DF91CF911F910F91FF90EF90DF9099
S1130720CF90BF90AF909F908F907F9008957E9BC5
S1130730D9CFD11021C07C9906C08091300181119C
S11307407CC0709230017F990AC0809130018B3354
S113075009F488C0809130018F5F80933001D12CDF
S113076006C083EC99E00197F1F700C000008FB157
S11307708E3FB9F712B88ACF7C9906C080913101B7
S1130780811155C0809231017F993FC08091310120
S11307908731C9F1809131018F5F80933101DD246C
S11307A0D394E5CF99E09B1598F1998280E38B0D62
S11307B08A831B82C8010E943E027CCF1F92CF9283
S11307C0FF92EF921F930F930E94A4060F900F9035
S11307D00F900F900F900F9079CF99E09B1598F19F
S11307E0998280E38B0D8A831B82C8010E943E029A
S11307F08FE191E00E943E02A0FC60CF88E291E08C
S11308000E943E0267CF10923101DD24D394AFCF12
S11308101F92BF92FF92EF921F930F930E94A40620
S11308200F900F900F900F900F900F90C2CF809168
S11308303101815080933101A7CF809130018150E3
S11308408093300180CF1F92BF92FF92EF921F934B
S11308500F930E94A4060F900F900F900F900F908B
S11308600F90C2CF10923001D12C81CF9F92AF92C2
S1130870BF92CF92DF92EF92FF920F931F93CF9389
S1130880DF9300D01F92CDB7DEB760E081E00E9415
S11308901F0283EC99E00197F1F700C00000C090BB
S11308A02D01B0902E01DD24D3948E010F5F1F4FD4
S11308B060E0E62E61E0F62E70E3972E0E942D0193
S11308C0A0902C0185E00E94AD01DD2009F498C0C0
S11308D0A0FC7BC088E291E00E943E028FE191E09F
S11308E00E943E0289E08C1508F47BC0998280E363
S11308F08C0D8A831B82C8010E943E027D9902C02E
S1130900DD24D3947B9926C07E9928C060E081E0E1
S11309100E941F026B2D8C2D0E94B5008FB18E3F5B
S113092049F083EC99E00197F1F700C000008FB122
S11309308E3FB9F712B80F900F900F90DF91CF91BF
S11309401F910F91FF90EF90DF90CF90BF90AF90E9
S11309509F9008957E9BDACFD1100CC07C9914C06F
S1130960C11011C07F9987C0D12C8FB18E3FB9F4CB
S113097012B8A4CF7C991FC0B1101CC07F997FC04E
S1130980DD24D39409C0CA947F99EECF9BE3C916A2
S113099009F46AC0C394D12C8FB18E3F49F383EC20
S11309A099E00197F1F700C000009FB19E3FB9F7AD
S11309B012B884CFBA947F99E3CF87E1B81609F4CB
S11309C056C0B394DD24D394E7CF99E09B1570F11E
S11309D0998280E38B0D8A831B82C8010E943E02A8
S11309E07DCF1F92CF92FF92EF921F930F930E949D
S11309F0A4060F900F900F900F900F900F907ACF46
S1130A0099E09B1510F1998280E38B0D8A831B82F8
S1130A10C8010E943E028FE191E00E943E02A0FCC8
S1130A2061CF88E291E00E943E0268CF1F92BF929C
S1130A30FF92EF921F930F930E94A4060F900F90C2
S1130A400F900F900F900F90C7CF1F92BF92FF92FD
S1130A50EF921F930F930E94A4060F900F900F9094
S1130A600F900F900F90D3CFD12CC12C95CFDD24B4
S1130A70D394B12C91CFD12C5BE3C52E8DCFDD2443
S1130A80D39447E1B42E88CF7E9B39C07B9B0BC0A7
S1130A907D990FC08FB18E3F49F083EC99E00197A7
S1130AA0F1F700C000008FB18E3FB9F712B80E9471
S1130AB01C037F9B07C00DC083EC99E00197F1F7FD
S1130AC000C000008FB18E3FB9F712B881E0809367
S1130AD02F017C9B07C01AC083EC99E00197F1F7C2
S1130AE000C000008FB18E3FB9F712B810922F01E9
S1130AF0089583EC99E00197F1F700C000008FB1ED
S1130B008E3FB9F712B80E943604C0CF0895CF9330
S1130B10DF9300D01F92CDB7DEB70E946B0085B77C
S1130B20806885BF85B7806885BF10BA88EF81BBB0
S1130B300E94CC0180E484B910922F0110923001FC
S1130B408CE0809331018E010F5F1F4FE0E0EE2EA9
S1130B50E1E0FE2EF0E3AF2E41C081E291E00E947D
S1130B603E0281E30E94AD0183E291E00E943E02D5
S1130B70C0902E01D0902D01B0902C0185E00E94F0
S1130B80AD0189E08C1508F47CC0A98280E38C0D4A
S1130B908A831B82C8010E943E02B0FE5BC089E2C8
S1130BA091E00E943E0299E09D1508F45BC0A98281
S1130BB080E38D0D8A831B82C8010E943E029091BE
S1130BC0300180912D01981709F46AC00E944405F0
S1130BD087EA91E60197F1F700C0000060E082E047
S1130BE00E941F020E942D0183E00E94AD018091AA
S1130BF02F01882309F4B1CF84E191E00E943E02E1
S1130C0081E30E94AD018EE191E00E943E02C0901A
S1130C103101D090300183E30E94AD0189E08C154D
S1130C2008F45BC0A98280E38C0D8A831B82C8010F
S1130C300E943E028FE191E00E943E0299E09D15E0
S1130C40E8F1A98280E38D0D8A831B82C8010E948A
S1130C503E028ECF8FE191E00E943E0299E09D1505
S1130C6008F0A5CF1F92DF92FF92EF921F930F938C
S1130C700E94A4060F900F900F900F900F900F906A
S1130C809ACF1F92CF92FF92EF921F930F930E94DD
S1130C90A4060F900F900F900F900F900F9079CFA4
S1130CA09091310180912E01981390CF80912F0162
S1130CB0882309F48BCF0E94660288CF1F92DF92AB
S1130CC0FF92EF921F930F930E94A4060F900F9030
S1130CD00F900F900F900F90B8CF1F92CF92FF926A
S1130CE0EF921F930F930E94A4060F900F900F9002
S1130CF00F900F900F909ACF97FB072E16F4009445
S1130D0007D077FD09D00E94900607FC05D03EF479
S1130D10909581959F4F0895709561957F4F0895A3
S1130D20AA1BBB1B51E107C0AA1FBB1FA617B7070D
S1130D3010F0A61BB70B881F991F5A95A9F7809529
S1130D409095BC01CD010895AEE0B0E0EAEAF6E08A
S1130D500C944C090D891E8986E08C831A830983BF
S1130D608FEF9FE79E838D83AE01475E5F4F6F8950
S1130D70788DCE0101960E94C606EF81F885E00FBA
S1130D80F11F10822E96E4E00C946809ACE0B0E008
S1130D90ECECF6E00C943E097C016B018A01FC0149
S1130DA017821682838181FFBDC1CE0101964C0159
S1130DB0F7019381F60193FD859193FF81916F0172
S1130DC0882309F4ABC1853239F493FD859193FFEF
S1130DD081916F01853229F4B70190E00E94AE0839
S1130DE0E7CF512C312C20E02032A0F48B3269F073
S1130DF030F4803259F0833269F420612CC08D3292
S1130E0039F0803339F4216026C02260246023C085
S1130E10286021C027FD27C030ED380F3A3078F420
S1130E2026FF06C0FAE05F9E300D1124532E13C036
S1130E308AE0389E300D1124332E20620CC08E328D
S1130E4021F426FD6BC1206406C08C3611F42068A1
S1130E5002C0883641F4F60193FD859193FF819198
S1130E606F018111C1CF982F9F7D9554933028F441
S1130E700C5F1F4FFFE3F9830DC0833631F08337D6
S1130E8071F0833509F05BC022C0F8018081898349
S1130E900E5F1F4F44244394512C540115C0380154
S1130EA0F2E06F0E711CF801A080B18026FF03C030
S1130EB0652D70E002C06FEF7FEFC5012C870E94A3
S1130EC0A3082C0183012C852F77222E17C038010B
S1130ED0F2E06F0E711CF801A080B18026FF03C000
S1130EE0652D70E002C06FEF7FEFC5012C870E9473
S1130EF098082C012C852068222E830123FC1BC01A
S1130F00832D90E048165906B0F4B70180E290E0D2
S1130F100E94AE083A94F4CFF50127FC859127FE90
S1130F2081915F01B70190E00E94AE0831103A94BC
S1130F30F1E04F1A51084114510471F7E5C08436A9
S1130F4011F0893639F5F80127FF07C060817181F6
S1130F50828193810C5F1F4F08C060817181882753
S1130F6077FD8095982F0E5F1F4F2F76B22E97FF37
S1130F7009C090958095709561957F4F8F4F9F4FD5
S1130F802068B22E2AE030E0A4010E94E008A82ED6
S1130F90A81844C0853729F42F7EB22E2AE030E009
S1130FA025C0F22FF97FBF2E8F36C1F018F4883593
S1130FB079F0B4C0803719F0883721F0AFC02F2FF3
S1130FC02061B22EB4FE0DC08B2D8460B82E09C0F2
S1130FD024FF0AC09F2F9660B92E06C028E030E097
S1130FE005C020E130E002C020E132E0F801B7FEA4
S1130FF007C060817181828193810C5F1F4F06C09D
S11310006081718180E090E00E5F1F4FA4010E9417
S1131010E008A82EA818FB2DFF77BF2EB6FE0BC044
S11310202B2D2E7FA51450F4B4FE0AC0B2FC08C0C8
S11310302B2D2E7E05C07A2C2B2D03C07A2C01C0BB
S1131040752C24FF0DC0FE01EA0DF11D8081803353
S113105011F4297E09C022FF06C07394739404C05E
S1131060822F867809F0739423FD13C020FF06C0F5
S11310705A2C731418F4530C5718732C731468F403
S1131080B70180E290E02C870E94AE0873942C850F
S1131090F5CF731410F4371801C0312C24FF12C09B
S11310A0B70180E390E02C870E94AE082C8522FFD4
S11310B017C021FF03C088E590E002C088E790E0F4
S11310C0B7010CC0822F867859F021FD02C080E25E
S11310D001C08BE227FD8DE2B70190E00E94AE08CB
S11310E0A51438F4B70180E390E00E94AE085A9446
S11310F0F7CFAA94F401EA0DF11D8081B70190E0C5
S11311000E94AE08A110F5CF332009F451CEB701E7
S113111080E290E00E94AE083A94F6CFF70186810F
S1131120978102C08FEF9FEF2C96E2E10C945A094D
S1131130FC010590615070400110D8F7809590959E
S11311408E0F9F1F0895FC016150704001900110A3
S1131150D8F7809590958E0F9F1F08950F931F9336
S1131160CF93DF93182F092FEB018B8181FD03C0EF
S11311708FEF9FEF20C082FF10C04E815F812C81D2
S11311803D81421753077CF4E881F9819F012F5F69
S11311903F4F39832883108306C0E885F985812F62
S11311A00995892B29F72E813F812F5F3F4F3F837C
S11311B02E83812F902FDF91CF911F910F9108954E
S11311C0FA01AA27283051F1203181F1E8946F9374
S11311D06E7F6E5F7F4F8F4F9F4FAF4FB1E03ED01A
S11311E0B4E03CD0670F781F891F9A1FA11D680FB8
S11311F0791F8A1F911DA11D6A0F711D811D911DEB
S1131200A11D20D009F468943F912AE0269F11245F
S11312103019305D3193DEF6CF010895462F4770C3
S1131220405D4193B3E00FD0C9F7F6CF462F4F701E
S1131230405D4A3318F0495D31FD4052419302D07C
S1131240A9F7EACFB4E0A695979587957795679522
S1131250BA95C9F700976105710508959B01AC0122
S11312600A2E06945795479537952795BA95C9F749
S1131270620F731F841F951FA01D08952F923F9224
S11312804F925F926F927F928F929F92AF92BF9292
S1131290CF92DF92EF92FF920F931F93CF93DF933E
S11312A0CDB7DEB7CA1BDB0B0FB6F894DEBF0FBE9B
S11312B0CDBF09942A88398848885F846E847D84E8
S11312C08C849B84AA84B984C884DF80EE80FD80EA
S11312D00C811B81AA81B981CE0FD11D0FB6F89460
S11112E0DEBF0FBECDBFED010895F894FFCF21
S11312EE25640021212121212121212121212121B6
S11312FE212121002A202020202020202A00413ACA
S10F130E002020202020202020200000AF
S9030000FC
