S011000057616B65436C6F636B2E737265639F
S11300000C944C000C9469000C9469000C946900E5
S11300100C9469000C9469000C9469000C946900B8
S11300200C9469000C9469000C9469000C946900A8
S11300300C9469000C9469000C9469000C94690098
S11300400C9469000C9469000C9469000C94690088
S11300500C9469000C9469000C9469000C94690078
S11300600C9469000C9469000C9469000C94690068
S11300700C9469000C9469000C9469000C94690058
S11300800C9469000C9469000C9469000C94690048
S11300900C9469000C94690011241FBECFEFD0E1C9
S11300A0DEBFCDBF11E0A0E0B1E0E8E2F3E002C0C2
S11300B005900D92A830B107D9F721E0A8E0B1E08E
S11300C001C01D92AB30B207E1F70E9459010C94B4
S11300D092010C9400008093BB0084EC8093BC00DC
S11300E08091B9008832E1F7089584EE8093BC00D2
S11300F08091BC0087FD04C08091B90082B9F8CF1B
S1130100089584EE8093BC008091B9008031E1F7BA
S113011008958EED8093BB0084EC8093BC008091A5
S1130120B9008831E1F7089589E08093B800E9EBDC
S1130130F0E080818C7F80838FEF81B90E9475000D
S11301400E94890080E00E946B0081E80E946B009D
S113015080E00E946B0080E00E946B0084ED80933D
S1130160BC0085E88A95F1F7000008958FED80932F
S1130170BB0084EC8093BC008091B9008034E1F72B
S1130180089584EC8093BC008091B9008035E1F738
S11301908091BB0008950E94750081E082B90E949D
S11301A0890082E082B980E00E946B0084E082B919
S11301B00E94810088E082B90E94B60080E182B981
S11301C00E94C1008093080180E282B90E94C100AC
S11301D08093090180E482B90E94C10080930A01DE
S11301E080E882B984ED8093BC000895709A00C0C1
S11301F000C070988AE18A95F1F700C0089582954D
S1130200282F237394E0299F900111248C7C8695D8
S11302108695822B982F9575990F8A7A8695892BC6
S113022088B908958AB1806C8AB9689A8FEF87B9C2
S11302305F985E988CE188B90E94F6000E94F600EF
S113024080EF88B90E94F60080E888B900C000C039
S11302500E94F60087EE93E00197F1F700C00000DA
S113026080E688B90E94F60087EE93E00197F1F7E3
S113027000C000000895662311F05F9A01C05F98E2
S11302805E980E94FF000C94F6001F93CF93DF93B7
S1130290EC0110E0FE01E10FF11D8081882329F0BB
S11302A061E00E943B011F5FF5CFDF91CF911F9169
S11302B00895CF93DF9300D01F92CDB7DEB70E948D
S11302C094000E94120160E08CE00E943B0160E017
S11302D082E00E943B010E94CB001B8280910801B6
S11302E08F70805D8A838091080182958370805D20
S11302F08983CE0101960E94450180E091E00E942D
S113030045018FE493EC0197F1F700C0000060E031
S113031081E00E943B0183EC99E00197F1F700C072
S10B03200000D5CFF894FFCFD3
S10B0328737472696E67000032
S9030000FC
